{
  "_format": "hh-sol-artifact-1",
  "contractName": "MetaToken",
  "sourceName": "contracts/MetaToken.sol",
  "abi": [
    {
      "inputs": [],
      "stateMutability": "nonpayable",
      "type": "constructor"
    },
    {
      "inputs": [],
      "name": "ApprovalCallerNotOwnerNorApproved",
      "type": "error"
    },
    {
      "inputs": [],
      "name": "ApprovalQueryForNonexistentToken",
      "type": "error"
    },
    {
      "inputs": [],
      "name": "BalanceQueryForZeroAddress",
      "type": "error"
    },
    {
      "inputs": [],
      "name": "MintERC2309QuantityExceedsLimit",
      "type": "error"
    },
    {
      "inputs": [],
      "name": "MintToZeroAddress",
      "type": "error"
    },
    {
      "inputs": [],
      "name": "MintZeroQuantity",
      "type": "error"
    },
    {
      "inputs": [],
      "name": "OwnerQueryForNonexistentToken",
      "type": "error"
    },
    {
      "inputs": [],
      "name": "OwnershipNotInitializedForExtraData",
      "type": "error"
    },
    {
      "inputs": [],
      "name": "TransferCallerNotOwnerNorApproved",
      "type": "error"
    },
    {
      "inputs": [],
      "name": "TransferFromIncorrectOwner",
      "type": "error"
    },
    {
      "inputs": [],
      "name": "TransferToNonERC721ReceiverImplementer",
      "type": "error"
    },
    {
      "inputs": [],
      "name": "TransferToZeroAddress",
      "type": "error"
    },
    {
      "inputs": [],
      "name": "URIQueryForNonexistentToken",
      "type": "error"
    },
    {
      "anonymous": false,
      "inputs": [
        {
          "indexed": true,
          "internalType": "address",
          "name": "owner",
          "type": "address"
        },
        {
          "indexed": true,
          "internalType": "address",
          "name": "approved",
          "type": "address"
        },
        {
          "indexed": true,
          "internalType": "uint256",
          "name": "tokenId",
          "type": "uint256"
        }
      ],
      "name": "Approval",
      "type": "event"
    },
    {
      "anonymous": false,
      "inputs": [
        {
          "indexed": true,
          "internalType": "address",
          "name": "owner",
          "type": "address"
        },
        {
          "indexed": true,
          "internalType": "address",
          "name": "operator",
          "type": "address"
        },
        {
          "indexed": false,
          "internalType": "bool",
          "name": "approved",
          "type": "bool"
        }
      ],
      "name": "ApprovalForAll",
      "type": "event"
    },
    {
      "anonymous": false,
      "inputs": [
        {
          "indexed": true,
          "internalType": "uint256",
          "name": "fromTokenId",
          "type": "uint256"
        },
        {
          "indexed": false,
          "internalType": "uint256",
          "name": "toTokenId",
          "type": "uint256"
        },
        {
          "indexed": true,
          "internalType": "address",
          "name": "from",
          "type": "address"
        },
        {
          "indexed": true,
          "internalType": "address",
          "name": "to",
          "type": "address"
        }
      ],
      "name": "ConsecutiveTransfer",
      "type": "event"
    },
    {
      "anonymous": false,
      "inputs": [
        {
          "indexed": true,
          "internalType": "address",
          "name": "from",
          "type": "address"
        },
        {
          "indexed": true,
          "internalType": "address",
          "name": "to",
          "type": "address"
        },
        {
          "indexed": true,
          "internalType": "uint256",
          "name": "tokenId",
          "type": "uint256"
        }
      ],
      "name": "Transfer",
      "type": "event"
    },
    {
      "inputs": [
        {
          "internalType": "address",
          "name": "to",
          "type": "address"
        },
        {
          "internalType": "uint256",
          "name": "tokenId",
          "type": "uint256"
        }
      ],
      "name": "approve",
      "outputs": [],
      "stateMutability": "payable",
      "type": "function"
    },
    {
      "inputs": [
        {
          "internalType": "address",
          "name": "owner",
          "type": "address"
        }
      ],
      "name": "balanceOf",
      "outputs": [
        {
          "internalType": "uint256",
          "name": "",
          "type": "uint256"
        }
      ],
      "stateMutability": "view",
      "type": "function"
    },
    {
      "inputs": [
        {
          "internalType": "uint256",
          "name": "",
          "type": "uint256"
        }
      ],
      "name": "description",
      "outputs": [
        {
          "internalType": "string",
          "name": "",
          "type": "string"
        }
      ],
      "stateMutability": "view",
      "type": "function"
    },
    {
      "inputs": [
        {
          "internalType": "uint256",
          "name": "tokenId",
          "type": "uint256"
        }
      ],
      "name": "getApproved",
      "outputs": [
        {
          "internalType": "address",
          "name": "",
          "type": "address"
        }
      ],
      "stateMutability": "view",
      "type": "function"
    },
    {
      "inputs": [
        {
          "internalType": "address",
          "name": "owner",
          "type": "address"
        },
        {
          "internalType": "address",
          "name": "operator",
          "type": "address"
        }
      ],
      "name": "isApprovedForAll",
      "outputs": [
        {
          "internalType": "bool",
          "name": "",
          "type": "bool"
        }
      ],
      "stateMutability": "view",
      "type": "function"
    },
    {
      "inputs": [
        {
          "internalType": "uint256",
          "name": "quantity",
          "type": "uint256"
        }
      ],
      "name": "mint",
      "outputs": [],
      "stateMutability": "payable",
      "type": "function"
    },
    {
      "inputs": [],
      "name": "name",
      "outputs": [
        {
          "internalType": "string",
          "name": "",
          "type": "string"
        }
      ],
      "stateMutability": "view",
      "type": "function"
    },
    {
      "inputs": [],
      "name": "owner",
      "outputs": [
        {
          "internalType": "address",
          "name": "",
          "type": "address"
        }
      ],
      "stateMutability": "view",
      "type": "function"
    },
    {
      "inputs": [
        {
          "internalType": "uint256",
          "name": "tokenId",
          "type": "uint256"
        }
      ],
      "name": "ownerOf",
      "outputs": [
        {
          "internalType": "address",
          "name": "",
          "type": "address"
        }
      ],
      "stateMutability": "view",
      "type": "function"
    },
    {
      "inputs": [],
      "name": "promptDescription",
      "outputs": [
        {
          "internalType": "string[]",
          "name": "",
          "type": "string[]"
        }
      ],
      "stateMutability": "view",
      "type": "function"
    },
    {
      "inputs": [],
      "name": "promptUsed",
      "outputs": [],
      "stateMutability": "nonpayable",
      "type": "function"
    },
    {
      "inputs": [
        {
          "internalType": "address",
          "name": "from",
          "type": "address"
        },
        {
          "internalType": "address",
          "name": "to",
          "type": "address"
        },
        {
          "internalType": "uint256",
          "name": "tokenId",
          "type": "uint256"
        }
      ],
      "name": "safeTransferFrom",
      "outputs": [],
      "stateMutability": "payable",
      "type": "function"
    },
    {
      "inputs": [
        {
          "internalType": "address",
          "name": "from",
          "type": "address"
        },
        {
          "internalType": "address",
          "name": "to",
          "type": "address"
        },
        {
          "internalType": "uint256",
          "name": "tokenId",
          "type": "uint256"
        },
        {
          "internalType": "bytes",
          "name": "_data",
          "type": "bytes"
        }
      ],
      "name": "safeTransferFrom",
      "outputs": [],
      "stateMutability": "payable",
      "type": "function"
    },
    {
      "inputs": [
        {
          "internalType": "address",
          "name": "operator",
          "type": "address"
        },
        {
          "internalType": "bool",
          "name": "approved",
          "type": "bool"
        }
      ],
      "name": "setApprovalForAll",
      "outputs": [],
      "stateMutability": "nonpayable",
      "type": "function"
    },
    {
      "inputs": [
        {
          "internalType": "bytes4",
          "name": "interfaceId",
          "type": "bytes4"
        }
      ],
      "name": "supportsInterface",
      "outputs": [
        {
          "internalType": "bool",
          "name": "",
          "type": "bool"
        }
      ],
      "stateMutability": "view",
      "type": "function"
    },
    {
      "inputs": [],
      "name": "symbol",
      "outputs": [
        {
          "internalType": "string",
          "name": "",
          "type": "string"
        }
      ],
      "stateMutability": "view",
      "type": "function"
    },
    {
      "inputs": [
        {
          "internalType": "uint256",
          "name": "tokenId",
          "type": "uint256"
        }
      ],
      "name": "tokenURI",
      "outputs": [
        {
          "internalType": "string",
          "name": "",
          "type": "string"
        }
      ],
      "stateMutability": "view",
      "type": "function"
    },
    {
      "inputs": [],
      "name": "totalSupply",
      "outputs": [
        {
          "internalType": "uint256",
          "name": "",
          "type": "uint256"
        }
      ],
      "stateMutability": "view",
      "type": "function"
    },
    {
      "inputs": [
        {
          "internalType": "address",
          "name": "from",
          "type": "address"
        },
        {
          "internalType": "address",
          "name": "to",
          "type": "address"
        },
        {
          "internalType": "uint256",
          "name": "tokenId",
          "type": "uint256"
        }
      ],
      "name": "transferFrom",
      "outputs": [],
      "stateMutability": "payable",
      "type": "function"
    }
  ],
  "bytecode": "0x608060405260405180608001604052806051815260200162002a3160519139600990816200002e9190620003ab565b503480156200003c57600080fd5b506040518060400160405280600581526020017f41494e46540000000000000000000000000000000000000000000000000000008152506040518060400160405280600381526020017f41465400000000000000000000000000000000000000000000000000000000008152508160029081620000ba9190620003ab565b508060039081620000cc9190620003ab565b50620000dd6200012c60201b60201c565b600081905550505033600860006101000a81548173ffffffffffffffffffffffffffffffffffffffff021916908373ffffffffffffffffffffffffffffffffffffffff16021790555062000492565b600090565b600081519050919050565b7f4e487b7100000000000000000000000000000000000000000000000000000000600052604160045260246000fd5b7f4e487b7100000000000000000000000000000000000000000000000000000000600052602260045260246000fd5b60006002820490506001821680620001b357607f821691505b602082108103620001c957620001c86200016b565b5b50919050565b60008190508160005260206000209050919050565b60006020601f8301049050919050565b600082821b905092915050565b600060088302620002337fffffffffffffffffffffffffffffffffffffffffffffffffffffffffffffffff82620001f4565b6200023f8683620001f4565b95508019841693508086168417925050509392505050565b6000819050919050565b6000819050919050565b60006200028c62000286620002808462000257565b62000261565b62000257565b9050919050565b6000819050919050565b620002a8836200026b565b620002c0620002b78262000293565b84845462000201565b825550505050565b600090565b620002d7620002c8565b620002e48184846200029d565b505050565b5b818110156200030c5762000300600082620002cd565b600181019050620002ea565b5050565b601f8211156200035b576200032581620001cf565b6200033084620001e4565b8101602085101562000340578190505b620003586200034f85620001e4565b830182620002e9565b50505b505050565b600082821c905092915050565b6000620003806000198460080262000360565b1980831691505092915050565b60006200039b83836200036d565b9150826002028217905092915050565b620003b68262000131565b67ffffffffffffffff811115620003d257620003d16200013c565b5b620003de82546200019a565b620003eb82828562000310565b600060209050601f8311600181146200042357600084156200040e578287015190505b6200041a85826200038d565b8655506200048a565b601f1984166200043386620001cf565b60005b828110156200045d5784890151825560018201915060208501945060208101905062000436565b868310156200047d578489015162000479601f8916826200036d565b8355505b6001600288020188555050505b505050505050565b61258f80620004a26000396000f3fe6080604052600436106101145760003560e01c80636352211e116100a0578063a0712d6811610064578063a0712d681461038c578063a22cb465146103a8578063b88d4fde146103d1578063c87b56dd146103ed578063e985e9c51461042a57610114565b80636352211e1461029157806370a08231146102ce5780638da5cb5b1461030b578063953637311461033657806395d89b411461036157610114565b806318160ddd116100e757806318160ddd146101da57806323b872dd146102055780632c5f13e01461022157806342842e0e1461025e578063434645b41461027a57610114565b806301ffc9a71461011957806306fdde0314610156578063081812fc14610181578063095ea7b3146101be575b600080fd5b34801561012557600080fd5b50610140600480360381019061013b919061199b565b610467565b60405161014d91906119e3565b60405180910390f35b34801561016257600080fd5b5061016b6104f9565b6040516101789190611a8e565b60405180910390f35b34801561018d57600080fd5b506101a860048036038101906101a39190611ae6565b61058b565b6040516101b59190611b54565b60405180910390f35b6101d860048036038101906101d39190611b9b565b61060a565b005b3480156101e657600080fd5b506101ef61074e565b6040516101fc9190611bea565b60405180910390f35b61021f600480360381019061021a9190611c05565b610765565b005b34801561022d57600080fd5b5061024860048036038101906102439190611ae6565b610a87565b6040516102559190611a8e565b60405180910390f35b61027860048036038101906102739190611c05565b610b33565b005b34801561028657600080fd5b5061028f610b53565b005b34801561029d57600080fd5b506102b860048036038101906102b39190611ae6565b610d3b565b6040516102c59190611b54565b60405180910390f35b3480156102da57600080fd5b506102f560048036038101906102f09190611c58565b610d4d565b6040516103029190611bea565b60405180910390f35b34801561031757600080fd5b50610320610e05565b60405161032d9190611b54565b60405180910390f35b34801561034257600080fd5b5061034b610e2b565b6040516103589190611d91565b60405180910390f35b34801561036d57600080fd5b50610376610f04565b6040516103839190611a8e565b60405180910390f35b6103a660048036038101906103a19190611ae6565b610f96565b005b3480156103b457600080fd5b506103cf60048036038101906103ca9190611ddf565b611077565b005b6103eb60048036038101906103e69190611f54565b611182565b005b3480156103f957600080fd5b50610414600480360381019061040f9190611ae6565b6111f5565b6040516104219190611a8e565b60405180910390f35b34801561043657600080fd5b50610451600480360381019061044c9190611fd7565b611293565b60405161045e91906119e3565b60405180910390f35b60006301ffc9a760e01b827bffffffffffffffffffffffffffffffffffffffffffffffffffffffff191614806104c257506380ac58cd60e01b827bffffffffffffffffffffffffffffffffffffffffffffffffffffffff1916145b806104f25750635b5e139f60e01b827bffffffffffffffffffffffffffffffffffffffffffffffffffffffff1916145b9050919050565b60606002805461050890612046565b80601f016020809104026020016040519081016040528092919081815260200182805461053490612046565b80156105815780601f1061055657610100808354040283529160200191610581565b820191906000526020600020905b81548152906001019060200180831161056457829003601f168201915b5050505050905090565b600061059682611327565b6105cc576040517fcf4700e400000000000000000000000000000000000000000000000000000000815260040160405180910390fd5b6006600083815260200190815260200160002060000160009054906101000a900473ffffffffffffffffffffffffffffffffffffffff169050919050565b600061061582610d3b565b90508073ffffffffffffffffffffffffffffffffffffffff16610636611386565b73ffffffffffffffffffffffffffffffffffffffff1614610699576106628161065d611386565b611293565b610698576040517fcfb3b94200000000000000000000000000000000000000000000000000000000815260040160405180910390fd5b5b826006600084815260200190815260200160002060000160006101000a81548173ffffffffffffffffffffffffffffffffffffffff021916908373ffffffffffffffffffffffffffffffffffffffff160217905550818373ffffffffffffffffffffffffffffffffffffffff168273ffffffffffffffffffffffffffffffffffffffff167f8c5be1e5ebec7d5bd14f71427d1e84f3dd0314c0f7b2291e5b200ac8c7c3b92560405160405180910390a4505050565b600061075861138e565b6001546000540303905090565b600061077082611393565b90508373ffffffffffffffffffffffffffffffffffffffff168173ffffffffffffffffffffffffffffffffffffffff16146107d7576040517fa114810000000000000000000000000000000000000000000000000000000000815260040160405180910390fd5b6000806107e38461145f565b915091506107f981876107f4611386565b611486565b6108455761080e86610809611386565b611293565b610844576040517f59c896be00000000000000000000000000000000000000000000000000000000815260040160405180910390fd5b5b600073ffffffffffffffffffffffffffffffffffffffff168573ffffffffffffffffffffffffffffffffffffffff16036108ab576040517fea553b3400000000000000000000000000000000000000000000000000000000815260040160405180910390fd5b6108b886868660016114ca565b80156108c357600082555b600560008773ffffffffffffffffffffffffffffffffffffffff1673ffffffffffffffffffffffffffffffffffffffff168152602001908152602001600020600081546001900391905081905550600560008673ffffffffffffffffffffffffffffffffffffffff1673ffffffffffffffffffffffffffffffffffffffff16815260200190815260200160002060008154600101919050819055506109918561096d8888876114d0565b7c0200000000000000000000000000000000000000000000000000000000176114f8565b600460008681526020019081526020016000208190555060007c0200000000000000000000000000000000000000000000000000000000841603610a175760006001850190506000600460008381526020019081526020016000205403610a15576000548114610a14578360046000838152602001908152602001600020819055505b5b505b838573ffffffffffffffffffffffffffffffffffffffff168773ffffffffffffffffffffffffffffffffffffffff167fddf252ad1be2c89b69c2b068fc378daa952ba7f163c4a11628f55a4df523b3ef60405160405180910390a4610a7f8686866001611523565b505050505050565b600a8181548110610a9757600080fd5b906000526020600020016000915090508054610ab290612046565b80601f0160208091040260200160405190810160405280929190818152602001828054610ade90612046565b8015610b2b5780601f10610b0057610100808354040283529160200191610b2b565b820191906000526020600020905b815481529060010190602001808311610b0e57829003601f168201915b505050505081565b610b4e83838360405180602001604052806000815250611182565b505050565b600a80600181540180825580915050600190039060005260206000200160006040518060400160405280600c81526020017f6120736e6f77792063697479000000000000000000000000000000000000000081525090919091509081610bb99190612223565b50600a80600181540180825580915050600190039060005260206000200160006040518060400160405280601781526020017f6120726564646973682063697479207061696e74696e6700000000000000000081525090919091509081610c209190612223565b50600a80600181540180825580915050600190039060005260206000200160006040518060600160405280602381526020016125376023913990919091509081610c6a9190612223565b50600a80600181540180825580915050600190039060005260206000200160006040518060400160405280601981526020017f612062656175746966756c206d6f726e696e67207363656e650000000000000081525090919091509081610cd19190612223565b50600a80600181540180825580915050600190039060005260206000200160006040518060400160405280601981526020017f41206e657720657261206d6f6465726e207061696e74696e670000000000000081525090919091509081610d389190612223565b50565b6000610d4682611393565b9050919050565b60008073ffffffffffffffffffffffffffffffffffffffff168273ffffffffffffffffffffffffffffffffffffffff1603610db4576040517f8f4eb60400000000000000000000000000000000000000000000000000000000815260040160405180910390fd5b67ffffffffffffffff600560008473ffffffffffffffffffffffffffffffffffffffff1673ffffffffffffffffffffffffffffffffffffffff16815260200190815260200160002054169050919050565b600860009054906101000a900473ffffffffffffffffffffffffffffffffffffffff1681565b6060600a805480602002602001604051908101604052809291908181526020016000905b82821015610efb578382906000526020600020018054610e6e90612046565b80601f0160208091040260200160405190810160405280929190818152602001828054610e9a90612046565b8015610ee75780601f10610ebc57610100808354040283529160200191610ee7565b820191906000526020600020905b815481529060010190602001808311610eca57829003601f168201915b505050505081526020019060010190610e4f565b50505050905090565b606060038054610f1390612046565b80601f0160208091040260200160405190810160405280929190818152602001828054610f3f90612046565b8015610f8c5780601f10610f6157610100808354040283529160200191610f8c565b820191906000526020600020905b815481529060010190602001808311610f6f57829003601f168201915b5050505050905090565b600860009054906101000a900473ffffffffffffffffffffffffffffffffffffffff1673ffffffffffffffffffffffffffffffffffffffff163373ffffffffffffffffffffffffffffffffffffffff1614611026576040517f08c379a000000000000000000000000000000000000000000000000000000000815260040161101d90612367565b60405180910390fd5b600581111561106a576040517f08c379a0000000000000000000000000000000000000000000000000000000008152600401611061906123d3565b60405180910390fd5b6110743382611529565b50565b8060076000611084611386565b73ffffffffffffffffffffffffffffffffffffffff1673ffffffffffffffffffffffffffffffffffffffff16815260200190815260200160002060008473ffffffffffffffffffffffffffffffffffffffff1673ffffffffffffffffffffffffffffffffffffffff16815260200190815260200160002060006101000a81548160ff0219169083151502179055508173ffffffffffffffffffffffffffffffffffffffff16611131611386565b73ffffffffffffffffffffffffffffffffffffffff167f17307eab39ab6107e8899845ad3d59bd9653f200f220920489ca2b5937696c318360405161117691906119e3565b60405180910390a35050565b61118d848484610765565b60008373ffffffffffffffffffffffffffffffffffffffff163b146111ef576111b8848484846116e4565b6111ee576040517fd1a57ed600000000000000000000000000000000000000000000000000000000815260040160405180910390fd5b5b50505050565b606061120082611327565b611236576040517fa14c4b5000000000000000000000000000000000000000000000000000000000815260040160405180910390fd5b6000611240611834565b90506000815103611260576040518060200160405280600081525061128b565b8061126a846118c6565b60405160200161127b92919061242f565b6040516020818303038152906040525b915050919050565b6000600760008473ffffffffffffffffffffffffffffffffffffffff1673ffffffffffffffffffffffffffffffffffffffff16815260200190815260200160002060008373ffffffffffffffffffffffffffffffffffffffff1673ffffffffffffffffffffffffffffffffffffffff16815260200190815260200160002060009054906101000a900460ff16905092915050565b60008161133261138e565b11158015611341575060005482105b801561137f575060007c0100000000000000000000000000000000000000000000000000000000600460008581526020019081526020016000205416145b9050919050565b600033905090565b600090565b600080829050806113a261138e565b11611428576000548110156114275760006004600083815260200190815260200160002054905060007c0100000000000000000000000000000000000000000000000000000000821603611425575b6000810361141b5760046000836001900393508381526020019081526020016000205490506113f1565b809250505061145a565b505b5b6040517fdf2d9b4200000000000000000000000000000000000000000000000000000000815260040160405180910390fd5b919050565b60008060006006600085815260200190815260200160002090508092508254915050915091565b600073ffffffffffffffffffffffffffffffffffffffff8316925073ffffffffffffffffffffffffffffffffffffffff821691508382148383141790509392505050565b50505050565b60008060e883901c905060e86114e7868684611916565b62ffffff16901b9150509392505050565b600073ffffffffffffffffffffffffffffffffffffffff83169250814260a01b178317905092915050565b50505050565b60008054905060008203611569576040517fb562e8dd00000000000000000000000000000000000000000000000000000000815260040160405180910390fd5b61157660008483856114ca565b600160406001901b178202600560008573ffffffffffffffffffffffffffffffffffffffff1673ffffffffffffffffffffffffffffffffffffffff168152602001908152602001600020600082825401925050819055506115ed836115de60008660006114d0565b6115e78561191f565b176114f8565b6004600083815260200190815260200160002081905550600080838301905073ffffffffffffffffffffffffffffffffffffffff85169150828260007fddf252ad1be2c89b69c2b068fc378daa952ba7f163c4a11628f55a4df523b3ef600080a4600183015b81811461168e57808360007fddf252ad1be2c89b69c2b068fc378daa952ba7f163c4a11628f55a4df523b3ef600080a4600181019050611653565b50600082036116c9576040517f2e07630000000000000000000000000000000000000000000000000000000000815260040160405180910390fd5b8060008190555050506116df6000848385611523565b505050565b60008373ffffffffffffffffffffffffffffffffffffffff1663150b7a0261170a611386565b8786866040518563ffffffff1660e01b815260040161172c94939291906124a8565b6020604051808303816000875af192505050801561176857506040513d601f19601f820116820180604052508101906117659190612509565b60015b6117e1573d8060008114611798576040519150601f19603f3d011682016040523d82523d6000602084013e61179d565b606091505b5060008151036117d9576040517fd1a57ed600000000000000000000000000000000000000000000000000000000815260040160405180910390fd5b805181602001fd5b63150b7a0260e01b7bffffffffffffffffffffffffffffffffffffffffffffffffffffffff1916817bffffffffffffffffffffffffffffffffffffffffffffffffffffffff191614915050949350505050565b60606009805461184390612046565b80601f016020809104026020016040519081016040528092919081815260200182805461186f90612046565b80156118bc5780601f10611891576101008083540402835291602001916118bc565b820191906000526020600020905b81548152906001019060200180831161189f57829003601f168201915b5050505050905090565b606060a060405101806040526020810391506000825281835b60011561190157600184039350600a81066030018453600a81049050806118df575b50828103602084039350808452505050919050565b60009392505050565b60006001821460e11b9050919050565b6000604051905090565b600080fd5b600080fd5b60007fffffffff0000000000000000000000000000000000000000000000000000000082169050919050565b61197881611943565b811461198357600080fd5b50565b6000813590506119958161196f565b92915050565b6000602082840312156119b1576119b0611939565b5b60006119bf84828501611986565b91505092915050565b60008115159050919050565b6119dd816119c8565b82525050565b60006020820190506119f860008301846119d4565b92915050565b600081519050919050565b600082825260208201905092915050565b60005b83811015611a38578082015181840152602081019050611a1d565b60008484015250505050565b6000601f19601f8301169050919050565b6000611a60826119fe565b611a6a8185611a09565b9350611a7a818560208601611a1a565b611a8381611a44565b840191505092915050565b60006020820190508181036000830152611aa88184611a55565b905092915050565b6000819050919050565b611ac381611ab0565b8114611ace57600080fd5b50565b600081359050611ae081611aba565b92915050565b600060208284031215611afc57611afb611939565b5b6000611b0a84828501611ad1565b91505092915050565b600073ffffffffffffffffffffffffffffffffffffffff82169050919050565b6000611b3e82611b13565b9050919050565b611b4e81611b33565b82525050565b6000602082019050611b696000830184611b45565b92915050565b611b7881611b33565b8114611b8357600080fd5b50565b600081359050611b9581611b6f565b92915050565b60008060408385031215611bb257611bb1611939565b5b6000611bc085828601611b86565b9250506020611bd185828601611ad1565b9150509250929050565b611be481611ab0565b82525050565b6000602082019050611bff6000830184611bdb565b92915050565b600080600060608486031215611c1e57611c1d611939565b5b6000611c2c86828701611b86565b9350506020611c3d86828701611b86565b9250506040611c4e86828701611ad1565b9150509250925092565b600060208284031215611c6e57611c6d611939565b5b6000611c7c84828501611b86565b91505092915050565b600081519050919050565b600082825260208201905092915050565b6000819050602082019050919050565b600082825260208201905092915050565b6000611ccd826119fe565b611cd78185611cb1565b9350611ce7818560208601611a1a565b611cf081611a44565b840191505092915050565b6000611d078383611cc2565b905092915050565b6000602082019050919050565b6000611d2782611c85565b611d318185611c90565b935083602082028501611d4385611ca1565b8060005b85811015611d7f5784840389528151611d608582611cfb565b9450611d6b83611d0f565b925060208a01995050600181019050611d47565b50829750879550505050505092915050565b60006020820190508181036000830152611dab8184611d1c565b905092915050565b611dbc816119c8565b8114611dc757600080fd5b50565b600081359050611dd981611db3565b92915050565b60008060408385031215611df657611df5611939565b5b6000611e0485828601611b86565b9250506020611e1585828601611dca565b9150509250929050565b600080fd5b600080fd5b7f4e487b7100000000000000000000000000000000000000000000000000000000600052604160045260246000fd5b611e6182611a44565b810181811067ffffffffffffffff82111715611e8057611e7f611e29565b5b80604052505050565b6000611e9361192f565b9050611e9f8282611e58565b919050565b600067ffffffffffffffff821115611ebf57611ebe611e29565b5b611ec882611a44565b9050602081019050919050565b82818337600083830152505050565b6000611ef7611ef284611ea4565b611e89565b905082815260208101848484011115611f1357611f12611e24565b5b611f1e848285611ed5565b509392505050565b600082601f830112611f3b57611f3a611e1f565b5b8135611f4b848260208601611ee4565b91505092915050565b60008060008060808587031215611f6e57611f6d611939565b5b6000611f7c87828801611b86565b9450506020611f8d87828801611b86565b9350506040611f9e87828801611ad1565b925050606085013567ffffffffffffffff811115611fbf57611fbe61193e565b5b611fcb87828801611f26565b91505092959194509250565b60008060408385031215611fee57611fed611939565b5b6000611ffc85828601611b86565b925050602061200d85828601611b86565b9150509250929050565b7f4e487b7100000000000000000000000000000000000000000000000000000000600052602260045260246000fd5b6000600282049050600182168061205e57607f821691505b60208210810361207157612070612017565b5b50919050565b60008190508160005260206000209050919050565b60006020601f8301049050919050565b600082821b905092915050565b6000600883026120d97fffffffffffffffffffffffffffffffffffffffffffffffffffffffffffffffff8261209c565b6120e3868361209c565b95508019841693508086168417925050509392505050565b6000819050919050565b600061212061211b61211684611ab0565b6120fb565b611ab0565b9050919050565b6000819050919050565b61213a83612105565b61214e61214682612127565b8484546120a9565b825550505050565b600090565b612163612156565b61216e818484612131565b505050565b5b818110156121925761218760008261215b565b600181019050612174565b5050565b601f8211156121d7576121a881612077565b6121b18461208c565b810160208510156121c0578190505b6121d46121cc8561208c565b830182612173565b50505b505050565b600082821c905092915050565b60006121fa600019846008026121dc565b1980831691505092915050565b600061221383836121e9565b9150826002028217905092915050565b61222c826119fe565b67ffffffffffffffff81111561224557612244611e29565b5b61224f8254612046565b61225a828285612196565b600060209050601f83116001811461228d576000841561227b578287015190505b6122858582612207565b8655506122ed565b601f19841661229b86612077565b60005b828110156122c35784890151825560018201915060208501945060208101905061229e565b868310156122e057848901516122dc601f8916826121e9565b8355505b6001600288020188555050505b505050505050565b7f4f6e6c79206f776e65722063616e20706572666f726d2074686973206163746960008201527f6f6e210000000000000000000000000000000000000000000000000000000000602082015250565b6000612351602383611a09565b915061235c826122f5565b604082019050919050565b6000602082019050818103600083015261238081612344565b9050919050565b7f6f6e6c792035206e66747320746f206265206d696e7465640000000000000000600082015250565b60006123bd601883611a09565b91506123c882612387565b602082019050919050565b600060208201905081810360008301526123ec816123b0565b9050919050565b600081905092915050565b6000612409826119fe565b61241381856123f3565b9350612423818560208601611a1a565b80840191505092915050565b600061243b82856123fe565b915061244782846123fe565b91508190509392505050565b600081519050919050565b600082825260208201905092915050565b600061247a82612453565b612484818561245e565b9350612494818560208601611a1a565b61249d81611a44565b840191505092915050565b60006080820190506124bd6000830187611b45565b6124ca6020830186611b45565b6124d76040830185611bdb565b81810360608301526124e9818461246f565b905095945050505050565b6000815190506125038161196f565b92915050565b60006020828403121561251f5761251e611939565b5b600061252d848285016124f4565b9150509291505056fe41206c617267652073747275637475726520696e2063656e747265206f662063697479a264697066735822122015eaefd917298a5bfe8fd9f6f77304b2c0aeee787674335d04c699e9a2f85f0364736f6c6343000812003368747470733a2f2f676174657761792e70696e6174612e636c6f75642f697066732f516d59507a706e6f3366656259686f787372484768435451556e74735562664141376e4a4c4d457a4167457036372f",
  "linkReferences": {},
  "deployedLinkReferences": {}
}